:1011D100D3EF9400EE9400401600000075080B75E3
:0F11E10009BED509FDD508FAEF1F70E41E80E1A5
:0111F00022DC
:10131800D3EF9400EE9400400A000000EF1F70F035
:041328001E80ED2214
:1012850043BC807F0A7E001211D153DEFC43DE0C85
:0A12950053BCDF53A8DF43DE202224
:1011B000E4FDFC53BCF0EF444042BCE5BC30E5FB31
:1011C00053BCDF53BCBFAFBDEFADBEFCEDAE04FF03
:0111D00022FC
:0D000E00E4F5C7F5C5F5C675C380F5C4223D
:1012300075C78075F50C75C5038FC4EEF5C375C60B
:0E1240005A75C6A57F0A7E001211D102000E5B
:10118E0075C78075F50C75C5028FC4EEF5C3AF0536
:10119E008FC275C65A75C6A57F0A7E001211D1027E
:0211AE00000E31
:1011F10075C78075F50C75C5018FC4EEF5C375C64D
:101201005A75C6A57F0A7E001211D1AFC202000E27
:10121100759418E4F593F5927591F875960EF59518
:0F12210075B2C2F5B175B48EF5B3F5CAF5C92231
:10116A003D3D3D3D3D3D3D3D3D3D20636F64652038
:10117A007374617274203D3D3D3D3D3D3D3D3D3DB5
:04118A00200D0A002A
:1010210043BA8012121112129F1212851213021268
:1010310012B812134012105E1212EA1200061213B5
:1010410080121365D2AF12109B7BFF7A11796A125D
:0D1051000109120F9F120C531210D480F5EC
:10105E0043BA8090FEB6E0F090FEEDE4F090FEEA2A
:10106E007470F0A3F090FEED7411F090FEF2740423
:10107E00F0A37451F090FEF0E4F0A37431F090FE02
:0D108E00B5E04450F090FEE0E04401F02297
:05000600D288D2A822FF
:10134000438E805389F0758ACD758CD4C28DD28C32
:03135000D2A922FD
:0A138000538EBF53890F43891022DA
:1013650053D1FDE4F5D575D4DC43D10843AF202234
:10129F0053A23F759850438E01438E0475D7E8755E
:0912AF00D6FF438E1075A8102231
:1013020075841043844043D12075D3E875D2FF43DE
:06131200D18043AF102260
:040737004101070075
:1012B800E4900000F0900081F0900101F0F0A3F0BC
:0912C800A3F0A3F0A3F0C28422FC
:03009300020BD489
:100BD400C0E0C083C082C0D075D000C007E58430B7
:100BE400E12A5384FD900101E0601AA3E0FF04F0C0
:100BF40074012FF582E43400F583E0F5859001015A
:100C0400E014F08007900102E4F0C284E58430E04F
:100C1400335384FE900000E07021900105E0D394EA
:100C2400804002E4F0900105E02481F582E4340080
:100C3400F583E585F0900105E004F0900103E4F00C
:0F0C4400A37405F0D007D0D0D082D083D0E03297
:03000B00020FE2FF
:100FE200C0E0C083C082C0D0900103E07002A3E0E1
:100FF2006024900104E024FFF0900103E034FFF04C
:10100200E07002A3E0700F900105E0D39400400667
:0F1012009000007401F0D0D0D082D083D0E032B3
:0300230002124E78
:10124E00C0E0C083C082309907C299900107E4F0D4
:0C125E00309802C298D082D083D0E032D9
:0B1375008F99900107E070FA04F0224D
:10109B007F107E001211F1EFB4FF2B9002397432E6
:1010AB00F09002387403F090023A7450F0E490021E
:1010BB0037F09002367405F090023B7402F0900208
:0910CB004114F0120D89020E4CD3
:100D8900E4FFFE121230900239E0FDE4FFFE121179
:100D99008E900238E0FD7F017E0012118E90023A9A
:100DA900E0FD7F027E0012118E900237E0FD7F0385
:100DB9007E0012118E900236E0FD7F047E00121132
:100DC9008E90023BE0FD7F057E0012118E9002415C
:100DD900E0FD7F067E0012118E7D587F107E000295
:020DE900118E69
:100E4C00E4FFFE1211F1900239EFF012132C7F0126
:100E5C007E001211F1900238EFF01212D17F027E57
:100E6C00001211F190023AEFF07F037E001211F1A3
:100E7C00900237EFF07F047E001211F1900236EFF2
:100E8C00F0120EA97F057E001211F190023BEFF0DB
:0D0E9C007F067E001211F1900241EFF0225E
:10073B0060FC010F03D503FA04200446046D0495F5
:10074B0004BE04E70510053A0565059005BB05E7F2
:10075B000613063F066C069906C606F30720074DDF
:10076B00077A07A707D40800082D0859088508B190
:10077B0008DC09070931095B098409AD09D609FDB4
:10078B000A240A4B0A710A960ABB0ADE0B020B24D7
:10079B000B460B670B870BA70BC60BE40C020C1E4F
:1007AB000C3A0C560C700C8A0CA40CBC0CD40CEC34
:1007BB000D020D190D2E0D430D570D6B0D7E0D906A
:1007CB000DA20DB40DC50DD50DE50DF50E040E12D4
:1007DB000E200E2E0E3B0E480E550E610E6D0E7832
:1007EB000E830E8D0E970EA10EAB0EB40EBD0EC664
:1007FB000ECF0ED70EDF0EE70EEF0EF60EFD0F042B
:10080B000F0B0F110F170F1D0F230F290F2F0F3565
:10081B000F3A0F3F0F440F490F4E0F530F580F5CFA
:10082B000F600F650F690F6D0F710F740F780F7CD1
:0E0B490090020FEBF0A3EAF0A3E9F0A3EDF0A9
:100B5700E4900216F0A3F0900215F0900212E01450
:100B6700FF900215E0FEC39F505A90020FE0FBA3CF
:100B7700E0FAA3E0F975F002EEA4F58285F083129E
:100B87000567FF900213E0FCA3E0FDC39FEC95F01F
:100B9700402AA3E02401FFE433FEEF25E0FFEE3314
:100BA700FE8F828E83120567FFC3ED9FEC95F05091
:100BB7000B900215E0FFA3E4F0A3EFF0900215E01D
:0C0BC70004F08097900216E0FEA3E0FF0F
:010BD30022FF
:050DEB0090020BEFF087
:100DF000E490020DF0A3F090020CF090020BE0FFE3
:100E00001211B090020EE02FF090020DE03EF09033
:100E1000020CE004F0E0C3940A40E090020DE0FE12
:100E2000A3E0FF7C007D0A12051290020DEEF0A3F4
:100E3000EFF07B017A01790F90020DE0FFA3E090C3
:0C0E40000213CFF0A3EFF07D7E020B49FF
:1012EA00E4900233F0D2C3D2C2D2C190010CF09082
:0812FA000243F090023CF022D7
:0300030002113CAB
:10113C00C0E0C083C082C0D075D000C0069002341D
:10114C00E0FEA3E0F58BEEF58D9002337401F0D246
:0E115C008ED2ABD006D0D0D082D083D0E0327D
:03001B00020F03CE
:100F0300C0E0C083C082C0D075D000C00790023358
:100F1300E06401702CF090023EE0FFC374019F2453
:100F2300FF92C1A3E0FFC374019F24FF92C2A3E019
:100F3300FFC374019F24FF92C3758BD1758DFF800E
:100F43000AD2C3D2C2D2C1C28EC2ABD007D0D0D0D4
:060F530082D083D0E032E1
:10132C00EF75F04AA42490FEE5F034E2900234F01C
:04133C00A3CEF0222A
:1012D100AD07ED75F0B8A4FFAEF090FEF9EEF0A306
:0912E100EFF0A3EEF0A3EFF02200
:100F9F00900243E0703A900237E06401701E9002B5
:100FAF003DE0B4010F900241E0B40104D2A88019D2
:100FBF00C2A8801590FEFDE4F0C2A822900241E085
:100FCF00B40104D2A88002C2A890FEFD7480F02262
:030FDF00C2A82283
:1010D40090010CE0B4012C7F04120DEB900108EF99
:1010E400F0120CC190023AE0FF900108E0C39F4067
:1010F400089002437401F08005E4900243F0E49008
:04110400010CF022C8
:100EA900900236E024FE601D14602414602D146045
:100EB9003A2404704490023E7401F0E4900240F038
:100EC90090023FF02290023F7401F0E4A380259044
:100ED90002407401F0E490023F801990023F7401CE
:100EE900F090023EF0E4900240F02290024074013A
:0A0EF900F090023FF090023EF0225C
:1011080090023CE06401702B90023BE024FE6010EA
:101118001460162402701C7F2312132C7F03801086
:101128007F3212132C7F0480077F5012132C7F0606
:041138001212D1229C
:10126A00D2907F027E00121318C2907F197E00125C
:0B127A0011D1D2907F1E7E00021318DD
:10002600E4900210F090020FF03090FD7F287E00E1
:1000360012131830901F2090FD900210E0FF9002DE
:100046000FE0FEC374079EFEF87401088002C333F6
:10005600D8FC4F801B900210E0FF90020FE0FEC319
:1000660074079EFEF87401088002C333D8FCF45F5F
:10007600900210F090020FE004F0E0C3940840A94B
:05008600900210E0FFF4
:01008B002252
:100CC10012126A20905D3090FD2090FD1200269056
:100CD100020BEFF012002690020CEFF012002690AA
:100CE100020DEFF012002690020EEFF0120026D254
:100CF1009090020CE0FD90020BE0F92DFDE433FC35
:100D010090020DE0FE7A002DFDEA3CFCA3E02DFDF2
:100D1100EA3CFCEFB5050CEAB5040890010DEEF0D4
:030D2100A3E9F053
:010D240022AC
:05083B00420254000020
:03009B00020F59F8
:060F5900C0E0C083C0826D
:100F5F0090023D2093057401F08002E4F090010CA3
:100F6F00E07026900255E004F07006900254E00401
:100F7F00F0900254E07004A3E06464700C90010CD4
:090F8F0004F0900254E4F0A3F018
:070F9800D082D083D0E032CB
:100C5300900000E064017065F07B017A0079819077
:100C63000105E024FEFD120D25AD07AC069001053C
:100C7300E0FB247FF582E43400F583E0FE74802BEF
:100C8300F582E43400F583E0FBEBFFE4900105F02B
:100C9300EDB50729ECB50625900081E0B4A11EA3AC
:100CA300E024FC600F24FE600E24F6600D240D701A
:0D0CB3000C0208410209FF0213531206242F
:010CC0002211
:1008410090024B7403F0900085A3E025E090024AEA
:10085100F0900083E0FEA3E0FDEDFF90024DEEF08D
:10086100A3EFF090000174A1F0A37403F090024A89
:10087100E0900003F090024AE0F9C313FD90024EAC
:10088100E02DFD90024DE03400FCC3EF9DEE9C4055
:100891000302092FE4900249F0900248F0EE7056ED
:1008A100EF14601A14602114602814602F14603949
:1008B10024057042E4900248F09002398033E490BC
:1008C1000248F09002388029E4900248F090023A00
:1008D100801FE4900248F09002378015900241E0B9
:1008E100900248F09002368008E4900248F09002AD
:1008F1003BE0900249F0900248E0FD90024BE0FCA1
:1009010004F074012CF582E43400F583EDF09002DB
:1009110049E0FD90024BE0FC04F074012CF582E407
:100921003400F583EDF00FBF00010E020876E924D3
:0709310003FD7F03020938FA
:1009FF0090024B7403F0900085A3E025E090024A2B
:100A0F00F0900083E0FEA3E0FDEDFF90024DEEF0CD
:100A1F00A3EFF090000174A1F0A37404F090024AC8
:100A2F00E0900003F090024AE0F9C313FD90024EEC
:100A3F00E02DFD90024DE03400FCC3EF9DEE9C5085
:100A4F0064E4900249F0900248F0EE7021EF1460D8
:100A5F000D04701AE4900248F0900108800B900189
:100A6F000EE0900248F090010DE0900249F09002E4
:100A7F0048E0FD90024BE0FC04F074012CF582E499
:100A8F003400F583EDF0900249E0FD90024BE0FC5D
:100A9F0004F074012CF582E43400F583EDF00FBF00
:0E0AAF0000010E8080E92403FD7F0402093857
:10135300900084E07D087F061209387F057E000235
:0213630011D1A6
:1006240090024C7407F0900087E090024AF090002A
:1006340083E0FEA3E0FDEDFF90024DEEF0A3EFF0AA
:1006440090020BEEF0A3EFF090024AE0C313FF9088
:10065400024EE02FFF90024DE03400FE90020BE0CA
:10066400FCA3E0FDC39FEC9E400302072D90024CC7
:10067400E02481F582E43400F583E0900248F090B0
:10068400024CE02482F582E43400F583E0900249D0
:10069400F0EC707AED14602914603414603B14603B
:1006A4004514605724057066900249E0FF900239B2
:1006B400F0BF1E037423F0900239E0FF12132C8064
:1006C4004D900249E0FF900238F01212D1803F9021
:1006D4000249E090023AF08035900249E0900237F6
:1006E400F0120F9F8028900248E0900241F090029F
:1006F40049E0900236F0120EA98013900248E0906F
:10070400023CF0900249E090023BF0121108900282
:100714004CE02402F090020CE004F0600302064C6A
:1007240090020BE004F002064C7D087F1012093899
:03073400020D892A
:0509380090020DEDF03E
:10093D00EF24FC600F24FE604F24F66064240D60EC
:10094D00030209EC7B017A00790190020DE0FD12A2
:10095D000D2590020EEEF0A3EFF090020EE0FEA337
:10096D00E0FD90020DE0FC2402F582E43400F583F5
:10097D00EDF0EEFF74012CF582E43400F583EFF019
:10098D0090020DE02402805378017C007D017B01F3
:10099D007A0079817E007F081204D390020DE080E9
:1009AD003A78017C007D017B017A0079817E007FA0
:1009BD00061204D37B017A0079017D06120D259074
:1009CD00020EEEF0A3EFF090020EE0FEA3E0900019
:1009DD0008F0EE900007F090020DE0900101F0D2CA
:1009ED00847F027E001211D14384027F017E0002BA
:0209FD0011D116
:050D2500900210EDF04A
:100D2A0074FFA3F0A3F01204F9FF900211E0F0A3FC
:100D3A00E06FF0E4FD900211E0FEA3E0FF30E0195D
:100D4A00EEC313FEEF13FFEE64A0FEEF6401FF9003
:100D5A000211EEF0A3EFF0800B900211E0C313F042
:100D6A00A3E013F00DEDB408CC740129F9E43AFAC2
:0E0D7A00900210E014F070AEA3E0FEA3E0FFC4
:010D88002248
:03000000020ABD34
:0C0ABD00787FE4F6D8FD758121020B045F
:10040300E709F608DFFA8046E709F208DFFA803EDB
:1004130088828C83E709F0A3DFFA8032E309F608C8
:10042300DFFA8078E309F208DFFA807088828C8330
:10043300E309F0A3DFFA806489828A83E0A3F608E4
:10044300DFFA805889828A83E0A3F208DFFA804CBE
:1004530080D280FA80C680D4806980F28033801095
:1004630080A680EA809A80A880DA80E280CA8033FE
:1004730089828A83ECFAE493A3C8C582C8CCC58376
:10048300CCF0A3C8C582C8CCC583CCDFE9DEE78046
:100493000D89828A83E493A3F608DFF9ECFAA9F0C5
:1004A300EDFB2289828A83ECFAE0A3C8C582C8CC1B
:1004B300C583CCF0A3C8C582C8CCC583CCDFEADE34
:1004C300E880DB89828A83E493A3F208DFF980CC96
:1004D30088F0EF60010E4E60C388F0ED2402B4048F
:1004E3000050B9F582EB2402B4040050AF23234536
:0604F30082239004537304
:1004F900BB010689828A83E0225002E722BBFE0201
:09050900E32289828A83E4932233
:10051200BC000BBE0029EF8DF084FFADF022E4CCCD
:10052200F875F008EF2FFFEE33FEEC33FCEE9DEC96
:10053200984005FCEE9DFE0FD5F0E9E4CEFD22EDDC
:10054200F8F5F0EE8420D21CFEADF075F008EF2F26
:10055200FFED33FD4007985006D5F0F222C398FD17
:050562000FD5F0EA22B4
:10056700BB0110E58229F582E5833AF583E0F5F0D2
:10057700A3E0225009E92582F886F008E622BBFEAF
:100587000AE92582F8E2F5F008E222E5832AF583F5
:08059700E993F5F0A3E99322BA
:10009E00E508240EF582E43402F583E0050822908B
:1000AE00020B30070390020EE475F0011205DE021A
:1000BE0004F92000E97F2ED2008018EF540F24900F
:1000CE00D43440D4FF30040BEF24BFB41A005003D5
:1000DE002461FFE50960021509050CE50C700205A7
:1000EE000B30070E90020BE475F0011205DEEF02E5
:1000FE0005CC0213757403D2078003E4C207F5081A
:10010E0090020B1205F5E4F509F50BF50CE5096007
:10011E00077F201200E180F5750AFFC201C200C2FE
:10012E0002C203C205C206C2081200ADFF700D3036
:10013E0007057F001200F2AF0CAE0B22B4255FC292
:10014E00D5C2041200ADFF24D0B40A00501A75F0C7
:10015E000A780930D50508B6FF0106C6A426F62092
:10016E00D5047002D20380D924CFB41A00EF500404
:10017E00C2E5D2040202F3D20180C6D20080C0D200
:10018E000280BCD2D580BAD20580B47F201200E1A5
:10019E002002077401B5090040F112009EFF120003
:1001AE00E102011BD208D206809512009EFB1200BE
:1001BE009EFA12009EF94A4B700679C47A037BFFB1
:1001CE0020022EE509602A7E008E827583001205BC
:1001DE009F60060EEE650A70F0C2D5EBC0E0EAC075
:1001EE00E0E9C0E0EE12033AD0E0F9D0E0FAD0E058
:1001FE00FB1204F9FF60AAEBC0E0EAC0E0E9C0E040
:10020E001200E1D0E02401F9D0E03400FAD0E0FB96
:10021E00E50A0460DCD50AD980877BFF7A0379363C
:10022E00D202809C791080027908C206C20880082A
:10023E00D2D5790A8004790AC2D5E50A047002F58E
:10024E000AE4FAFDFEFF12009EFC7B082001131249
:10025E00009EFD7B1030000A12009EFE12009EFFD3
:10026E007B20EC3382D592D55013C3E43000069F29
:10027E00FFE49EFEE42001039DFDE49CFCE4CBF82C
:10028E00C201EC700CCFCECDCCE824F8F870F38020
:10029E0017C3EF33FFEE33FEED33FDEC33FCEB33E0
:1002AE00FB994002FB0FD8E9EB300105F8D0E0C412
:1002BE0048B201C0E00AEC4D4E4F78207B0070C270
:1002CE00EAB50A0040BCC0E012033CD0F0D0E020FA
:1002DE000104C4C0E0C4B201C0F01200CAD0F0D50F
:1002EE00F0EB02011B1205FE01B8530232580189D0
:1002FE004C01854202364F023E44023E49019E4366
:08030E000244550228460228B2
:100316004502284703E450018D2D01912E01B42B8F
:1003260001952301B22003CD2A014D48000001ACFE
:100336003F3F3F00790AA2D5200314300509B910C2
:10034600020404B9080104A2D520060250010420C3
:1003560002689202B509005034C0E07F20300319CC
:100366007F30A20272067205500F120393C202C2B8
:1003760006C205C2087F30800F300503E9C0E012CF
:1003860000E1300503D0E0F9D0E0B509CC3005171F
:100396007F30B9100C1200E17F583004077F788057
:1003A60003B908031200E13002057F2D0200E17F48
:1003B600202008F87F2B2006F322920280CF286E99
:1003C600756C6C2900D20112009E3001F8C20178CA
:1003D6000930D50108F602014D2D50434958120047
:1003E6009E2403B405004001E49003DF931200D27B
:0D03F600743A1200D2D203750904020232DB
:100AC900021021E493A3F8E493A34003F68001F212
:100AD90008DFF48029E493A3F85407240CC8C3332E
:100AE900C4540F4420C8834004F456800146F6DFFD
:100AF900E4800B0102040810204080900737E47E4F
:100B0900019360BCA3FF543F30E509541FFEE493F1
:100B1900A360010ECF54C025E060A840B8E493A3B8
:100B2900FAE493A3F8E493A3C8C582C8CAC583CAE3
:100B3900F0A3C8C582C8CAC583CADFE9DEE780BE9B
:0108400000B7
:10059F00BB010CE58229F582E5833AF583E0225011
:1005AF0006E92582F8E622BBFE06E92582F8E2225B
:0D05BF00E58229F582E5833AF583E4932275
:1005CC00BB010689828A83F0225002F722BBFE010E
:0205DC00F32208
:1005DE00F8E0FBA3A3E0F925F0F0E58215827002A6
:0705EE001583E0FA38F0224A
:0905F500EBF0A3EAF0A3E9F02207
:1005FE00D083D082F8E4937012740193700DA3A38C
:10060E0093F8740193F5828883E47374029368609F
:06061E00EFA3A3A380DF9F
:00000001FF
